:04001D0002140000C9
:1001DD00759850758920758D1D758B1DD28ED2AC7D
:0301ED00D2AF226C
:08020A001201DD12011580FE56
:030023000200B226
:1000B200C0E0C0F0C083C082C0D075D000C000C014
:0D00C20001C002C003C004C005C006C00795
:1000CF00D39298AF1574082FF8A69974082515F8D0
:1000DF00E6FBE4FD1200030515E51570020514C2D9
:0B00EF0098640445147004F514F51526
:1000FA00D007D006D005D004D003D002D001D0005A
:0B010A00D0D0D082D083D0F0D0E03203
:03021200DFFE22EA
:1001A000AE07AF061EEF600C7FF51202127FF5124C
:0501B000021280EE22A6
:1001F0007590FFC2A4D2A5C2A600D2A6E590332274
:1001B5008F0F7F051201A0C2A4C2A5D2A6850F90FC
:0401C50000C2A622AC
:1001C9008F0E7F051201A0D2A4C2A5D2A6850E90DA
:0401D90000C2A62298
:0A0200007F011201B57F050201A085
:100151008F108B118A128913ED7006E510248080AF
:1001610004E51024C0FF1201B5AB11AA12A91312A4
:100171000187FF60101201C974012513F513E435DD
:0601810012F51280E422D9
:100003008F0C8B0DED7006E50C24808004E50C2429
:0A001300C0FF1201B5AF0D0201C9D4
:100115007F381201B57F051201A07F381201B57F26
:10012500051201A07F381201B57F051201A07F38A5
:100135001201B57F081201B57F011201B57F0612C4
:0C01450001B57F051201A07F0C0201B57E
:03000000020026D5
:0C002600787FE4F6D8FD75811502006DAE
:10018700BB010689828A83E0225002E722BBFE0276
:09019700E32289828A83E49322A9
:1000320002020AE493A3F8E493A34003F68001F2D8
:1000420008DFF48029E493A3F85407240CC8C333CF
:10005200C4540F4420C8834004F456800146F6DF9E
:10006200E4800B010204081020408090001DE47E11
:10007200019360BCA3FF543F30E509541FFEE49393
:10008200A360010ECF54C025E060A840B8E493A35A
:10009200FAE493A3F8E493A3C8C582C8CAC583CA85
:1000A200F0A3C8C582C8CAC583CADFE9DEE780BE3D
:0100210000DE
:00000001FF
