:030000000200DC1F
:0C00DC00787FE4F6D8FD7581090201234D
:060003000108000109855F
:1001EE00758901AF09AB07E4C39BFFE49400FE746D
:1001FE00019400FDE49400FCE4FB7A01F9F812028C
:10020E003A8F8CAF09AB07E4C39BFFE49400FE74F6
:10021E00019400FDE49400FCE4FB7A01F9F812026B
:0C022E003AAF038F8AD2A9D2AFD28C2243
:05027E001201EE80FEFC
:03000B0002016887
:10016800C0E0C0F0C083C082C0D075D000C000C05D
:1001780001C002C003C004C005C006C007AF09AB78
:1001880007E4C39BFFE49400FE74019400FDE4942B
:1001980000FCE4FB7A01F9F812023A8F8CAF09AB44
:1001A80007E4C39BFFE49400FE74019400FDE4940B
:1001B80000FCE4FB7A01F9F812023AAF038F8A05D2
:1001C80008E508643C7004F508B2A0D007D006D052
:1001D80005D004D003D002D001D000D0D0D082D036
:0601E80083D0F0D0E032EC
:1000E80002027EE493A3F8E493A34003F68001F2AE
:1000F80008DFF48029E493A3F85407240CC8C33319
:10010800C4540F4420C8834004F456800146F6DFE7
:10011800E4800B0102040810204080900003E47E74
:10012800019360BCA3FF543F30E509541FFEE493DC
:10013800A360010ECF54C025E060A840B8E493A3A3
:10014800FAE493A3F8E493A3C8C582C8CAC583CACE
:10015800F0A3C8C582C8CAC583CADFE9DEE780BE86
:0100090000F6
:10023A00C2D5E830E70FB2D5E4C39BFBE49AFAE4EF
:10024A0099F9E498F8EC30E717B2D5120270120067
:10025A004AE4C39BFBE49AFAE499F9E498F8800328
:10026A0012004A30D50DE4C39FFFE49EFEE49DFDD3
:04027A00E49CFC22E2
:10000E0075F008758200EF2FFFEE33FECD33CDCCA9
:10001E0033CCC58233C5829BED9AEC99E58298402C
:10002E000CF582EE9BFEED9AFDEC99FC0FD5F0D609
:10003E00E4CEFBE4CDFAE4CCF9A88222B800C1B933
:10004E000059BA002DEC8BF084CFCECDFCE5F0CB71
:10005E00F97818EF2FFFEE33FEED33FDEC33FCEBAA
:10006E0033FB10D703994004EB99FB0FD8E5E4F965
:10007E00FA227818EF2FFFEE33FEED33FDEC33FC52
:10008E00C933C910D7059BE99A4007EC9BFCE99A46
:10009E00F90FD8E0E4C9FAE4CCFB2275F010EF2F8B
:1000AE00FFEE33FEED33FDCC33CCC833C810D7078B
:1000BE009BEC9AE899400AED9BFDEC9AFCE899F8C6
:0E00CE000FD5F0DAE4CDFBE4CCFAE4C8F92259
:00000001FF
