:050191006E616D6500C8
:0F016E00759850758920758D1D758B1DD28E2249
:1001120078087C007D007BFF7A0179917E007F0563
:100122001200D312016E7B007A00790812015BE49F
:10013200F50D7FFA120146050DC3E50D6480948525
:0401420040F080E227
:03019600DFFE2267
:10014600AE07AF061EEF600C7FF51201967FF51223
:05015600019680EE227D
:080189008F993099FDC2992203
:10015B001200F9FF600C120189740129F9E43AFAD3
:03016B0080EE2201
:0300000002017D7D
:0C017D00787FE4F6D8FD75810D020112B8
:10000300E709F608DFFA8046E709F208DFFA803EDF
:1000130088828C83E709F0A3DFFA8032E309F608CC
:10002300DFFA8078E309F208DFFA807088828C8334
:10003300E309F0A3DFFA806489828A83E0A3F608E8
:10004300DFFA805889828A83E0A3F208DFFA804CC2
:1000530080D280FA80C680D4806980F28033801099
:1000630080A680EA809A80A880DA80E280CA803302
:1000730089828A83ECFAE493A3C8C582C8CCC5837A
:10008300CCF0A3C8C582C8CCC583CCDFE9DEE7804A
:100093000D89828A83E493A3F608DFF9ECFAA9F0C9
:1000A300EDFB2289828A83ECFAE0A3C8C582C8CC1F
:1000B300C583CCF0A3C8C582C8CCC583CCDFEADE38
:1000C300E880DB89828A83E493A3F208DFF980CC9A
:1000D30088F0EF60010E4E60C388F0ED2402B40493
:1000E3000050B9F582EB2402B4040050AF2323453A
:0600F3008223900053730C
:1000F900BB010689828A83E0225002E722BBFE0205
:09010900E32289828A83E4932237
:00000001FF
