:03011700DFFE22E6
:1000A800AE07AF061EEF600C7FF51201177FF51241
:0500B800011780EE229B
:1000E5007580FFC2A4D2A5C2A600D2A6E5803322A0
:1000BD008F0E7F051200A8C2A4C2A5D2A6850E8000
:0400CD0000C2A622A5
:1000D1008F0E7F051200A8D2A4C2A5D2A6850E80DC
:0400E10000C2A62291
:0A010D007F011200BD7F050200A86B
:10003F008F088B098A0A890BED7006E508248080EA
:10004F0004E50824C0FF1200BDAB09AA0AA90B12D0
:10005F00008FFF60101200D17401250BF50BE435F2
:06006F000AF50A80E422FC
:100075008F0C8B0DED7006E50C24808004E50C24B7
:0A008500C0FF1200BDAF0D0200D154
:100003007F381200BD7F051200A87F381200BD7F24
:10001300051200A87F381200BD7F051200A87F38A3
:100023001200BD7F081200BD7F011200BD7F0612C2
:0C00330000BD7F051200A87F0C0200BD7C
:0C00F5001200037B417D017F01020075B9
:03000000020101F9
:0C010100787FE4F6D8FD75810E0200F551
:10008F00BB010689828A83E0225002E722BBFE026F
:09009F00E32289828A83E49322A2
:00000001FF
