:0300000002000EED
:0C000E00787FE4F6D8FD758112020055E1
:0F00BB000A093F065B4F666D7D077F6F010800E6
:1000AB00758906758CFD758AFDD2A9D2AFD28C22CB
:10009A0074092508F8E6F5A0E508640A7002F5086F
:0100AA002233
:080003001200AB12009A80FB11
:03000B000200CB25
:0300CB00050832F3
:10001A00020003E493A3F8E493A34003F68001F2F9
:10002A0008DFF48029E493A3F85407240CC8C333E7
:10003A00C4540F4420C8834004F456800146F6DFB6
:10004A00E4800B01020408102040809000BBE47E8B
:10005A00019360BCA3FF543F30E509541FFEE493AB
:10006A00A360010ECF54C025E060A840B8E493A372
:10007A00FAE493A3F8E493A3C8C582C8CAC583CA9D
:10008A00F0A3C8C582C8CAC583CADFE9DEE780BE55
:0100CA000035
:00000001FF
