:1008D300C200D2917F05120993C2917FC812099376
:1008E3007FC8120993D2917F32120993A291920089
:0708F3007F19120993A20016
:0108FA0022DB
:1008A500E4F515F516751508D3E5159400748094CF
:1008B500804018C291E51613F516D2913091034385
:0D08C50016807F19120993151580DDAF16FE
:0108D2002203
:020875008F15DD
:10087700E4F516751608D3E5169400748094804045
:1008870018C291E5151392917F19120993D291E538
:0E08970015C313F515151680DD7F19020993A0
:1007C700E4F514FFFEFDFC1208D37FCC1208757FF9
:1007D700441208757F0A1209151208D37FCC120834
:1007E700757FBE1208751208A58F141208A5EF7F32
:0B07F70000FEEF2514FDE43EFEAF0500
:0108020022D3
:1004E0001208031207C78E088F09D3E5099400E5A7
:0504F000089400401417
:1004F500E508C4F854F0C868F512E509C4540F4876
:02050500F513EC
:1005070080E1E50BC4F8540FC868F50BE50AC4543D
:10051700F048F50AE50B640F450A6003020644E557
:1005270009F4FFE508F4FEEF2401FDE43EFCE412C4
:1005370002A6E4FBFA7980783D1200FB8F0F8E0E3E
:100547008D0D8C0C7B2DE4FDFF1208FBE4FBFA7983
:10055700207841AF0FAE0EAD0DAC0C120204E4FBD8
:10056700FA7940784212000A1202DFAB07E4FD7FF6
:10057700011208FBAF0FAE0EAD0DAC0C1202DF7C03
:10058700007D0A120379ED2430FBE4FD7F02120897
:10059700FB7B2EE4FD7F031208FBE4FFFE7D207C3E
:1005A70041AB0FAA0EA90DA80C1200FB1202DF7CAB
:1005B700007D0A120379ED2430FBE4FD7F04120865
:1005C700FBE4FFFE7DC87C42AB0FAA0EA90DA80C69
:1005D7001200FB1202DFE47B0AFAF9F8120783EB39
:1005E7002430FBE4FD7F051208FBE4FFFE7D7A7CE7
:1005F70044AB0FAA0EA90DA80C1200FB1202DFE4F0
:100607007B0AFAF9F8120783EB2430FBE4FD7F0637
:100617001208FB7F007E407D1C7C46AB0FAA0EA90B
:100627000DA80C1200FB1202DFE47B0AFAF9F8129C
:100637000783EB2430FBE4FD7F071208FBE5094540
:1006470008600302075FAC08AD091202A6E4FBFAD3
:100657007980783D1200FB8F0F8E0E8D0D8C0C7BF1
:100667002BE4FDFF1208FBE4FBFA79207841AF0F7A
:10067700AE0EAD0DAC0C120204E4FBFA79407842E1
:1006870012000A1202DFAB07E4FD7F011208FBAF7D
:100697000FAE0EAD0DAC0C1202DF7C007D0A12030B
:1006A70079ED2430FBE4FD7F021208FB7B2EE4FD8D
:1006B7007F031208FBE4FFFE7D207C41AB0FAA0EEF
:1006C700A90DA80C1200FB1202DF7C007D0A1203A1
:1006D70079ED2430FBE4FD7F041208FBE4FFFE7D87
:1006E700C87C42AB0FAA0EA90DA80C1200FB120280
:1006F700DFE47B0AFAF9F8120783EB2430FBE4FD09
:100707007F051208FBE4FFFE7D7A7C44AB0FAA0E3F
:10071700A90DA80C1200FB1202DFE47B0AFAF9F814
:10072700120783EB2430FBE4FD7F061208FB7F00F2
:100737007E407D1C7C46AB0FAA0EA90DA80C1200AB
:10074700FB1202DFE47B0AFAF9F8120783EB243085
:10075700FBE4FD7F071208FBE4F510F511C3E51173
:100767009464E5106480948040030204E37F64127C
:0C07770009150511E51170E5051080E181
:100965007580FFC2A4D2A5C2A600D2A6E580332217
:10092A008F167F05120915C2A4C2A5D2A685168004
:04093A0000C2A6222F
:10093E008F167F05120915D2A4C2A5D2A6851680E0
:04094E0000C2A6221B
:0A0981007F0112092A7F0502091503
:10083F008F178B188A19891AED7006E51724808097
:10084F0004E51724C0FF12092AAB18AA19A91A1216
:10085F000360FF601012093E7401251AF51AE43582
:06086F0019F51980E422D6
:1008FB008F148B15ED7006E51424808004E5142409
:0A090B00C0FF12092AAF1502093ED1
:100803007F3812092A7F051209157F3812092A7FBA
:10081300051209157F3812092A7F051209157F3839
:1008230012092A7F0812092A7F0112092A7F061258
:0C083300092A7F051209157F0C02092A12
:08098B008F993099FDC29922F9
:10095200120360FF600C12098B740129F9E43AFA60
:0309620080EE2202
:03099300DFFE2262
:10091500AE07AF061EEF600C7FF51209937FF51247
:05092500099380EE22A1
:1000030002034BE86480F8E933E83360110460F0DD
:10001300ED33EC337009E8FCE9FDEAFEEBFF220463
:1000230060DED3EB9FEA9EE99DE8C2E78CF0C2F75E
:1000330095F0400CE8CCF8E9CDF9EACEFAEBCFFB2A
:1000430012031685D0F05804700320D5B3E804706A
:10005300075002B2D502035592D5EC0460F7E4CC05
:10006300C0E0C398F8603B94186008400DD0E0FBF3
:1000730002032DE4FBFAC9FC8028E830E406E4C956
:10008300FBE4CAFCE830E305E4C9CACBFCE8540747
:100093006010F8C3E913F9EA13FAEB13FBEC13FC52
:1000A300D8F130F52FC3E49CFCEF9BFFEE9AFEEDF5
:1000B30099FDD0E0FBEF4E4D4C701222DB0302039F
:1000C30052EC2CFCEF33FFEE33FEED33FDED30E766
:1000D300EB02032DEF2BFFEE3AFEED39FDD0E0FBF3
:1000E30050130BBB0003020355ED13FDEE13FEEF9C
:0800F30013FFEC13FC02032DC6
:1000FB00EC4D6011E8497017ED33EC3304600DE4FF
:10010B00FCFFFEFD22E933E8330470F802034B12C7
:10011B00031658046009E4CC2481500628500902C8
:10012B000355284003020352C0E0EB4A7044B980E8
:10013B0006D0E0FB020341EF4E701CBD8008EBFFC5
:10014B00EAFEE9FD80EBE98DF0A4FEE5F00201E4A7
:10015B00E9CDF9EAFEEBFFEF89F0A4FCE5F0CE89DF
:10016B00F0A42EFFE435F0CD89F0A42DFEE435F09C
:10017B008067EF4E7005BD80D780C3EF8BF0A4ACCA
:10018B00F0EE8BF0A42CFCE435F0F8EF8AF0A42C05
:10019B00E5F038FCE433CB8DF0A42CFCE5F03BF818
:1001AB00EE8AF0A42CFCE5F038F8E433CF89F0A408
:1001BB002CFCE5F038CF3400CE89F0A42FFFE5F00E
:1001CB003EFEE433C98DF0A42EFEE5F039CD8AF066
:1001DB00A42FFFE5F03EFEE43DFD33D0E0FB5007DE
:1001EB000BBB000F020355EC2CFCEF33FFEE33FE81
:0601FB00ED33FD02032DAF
:10020100020355EC5D046005E85904700302034BD9
:10021100120316580460F6EC4860F2EC7004FDFE1F
:10022100FF22C860DB2481C85009C39860025006D0
:100231000203529850CAF582E9294B4A7005AB82F4
:1002410002034175F0007C1A7880C3EF9BEE9AEDB2
:1002510099400DC3EF9BFFEE9AFEED99FDE842F048
:10026100DC23ACF0D0E0FFD0E0FED0E0FDAB82209B
:10027100E7101BEB60BAEC2CFCEF33FFEE33FEED25
:1002810033FD02032DE803F830E705C0F075F000F7
:10029100EF2FFFEE33FEED33FD40B830E7C280AA09
:1002A10075F020800E75F010800575F0087D007ED8
:1002B100007F003392D530D5031203AFEC334010E9
:1002C100EF33FFEE33FEED33FDEC33FCD5F0ED22E1
:0E02D100E5F0247EA2D513CC92E7CDCEFF221D
:1002DF00EDD2E7CD33EC3392D524814006E4FFFE17
:1002EF00FDFC22FCE4CFCECDCC24E0501174FF8076
:1002FF00EDC3CC13CCCD13CDCE13CECF13CF047013
:07030F00F030D5DE0203AF60
:10031600E9D2E7C933E833F892D5EDD2E7CD33EC2D
:0703260033FC5002B2D522A6
:10032D00EC30E7100FBF000C0EBE00080DBD000431
:10033D000BEB6014A2D5EB13FCED92E7FD2274FFDD
:10034D00FCFDFEFF22E480F8A2D574FF13FC7D8036
:03035D00E480EF4A
:030000000209757D
:0C097500787FE4F6D8FD7581200204E0D4
:10036000BB010689828A83E0225002E722BBFE029B
:09037000E32289828A83E49322CE
:10037900C2D5EC30E709B2D5E4C39DFDE49CFCEE9F
:1003890030E715B2D5E4C39FFFE49EFE1203BDC357
:10039900E49DFDE49CFC80031203BD30D507C3E452
:0603A9009FFFE49EFE220E
:10078300C2D5E830E70FB2D5E4C39BFBE49AFAE4A1
:1007930099F9E498F8EC30E717B2D51207B91204C7
:1007A3004EE4C39BFBE49AFAE499F9E498F88003D6
:1007B30012044E30D50DE4C39FFFE49EFEE49DFD7D
:0407C300E49CFC2294
:0E03AF00C3E49FFFE49EFEE49DFDE49CFC225F
:1003BD00BC000BBE0029EF8DF084FFADF022E4CC24
:1003CD00F875F008EF2FFFEE33FEEC33FCEE9DECED
:1003DD00984005FCEE9DFE0FD5F0E9E4CEFD22ED33
:1003ED00F8F5F0EE8420D21CFEADF075F008EF2F7D
:1003FD00FFED33FD4007985006D5F0F222C398FD6E
:05040D000FD5F0EA220A
:1004120075F008758200EF2FFFEE33FECD33CDCCA1
:1004220033CCC58233C5829BED9AEC99E582984024
:100432000CF582EE9BFEED9AFDEC99FC0FD5F0D601
:10044200E4CEFBE4CDFAE4CCF9A88222B800C1B92B
:100452000059BA002DEC8BF084CFCECDFCE5F0CB69
:10046200F97818EF2FFFEE33FEED33FDEC33FCEBA2
:1004720033FB10D703994004EB99FB0FD8E5E4F95D
:10048200FA227818EF2FFFEE33FEED33FDEC33FC4A
:10049200C933C910D7059BE99A4007EC9BFCE99A3E
:1004A200F90FD8E0E4C9FAE4CCFB2275F010EF2F83
:1004B200FFEE33FEED33FDCC33CCC833C810D70783
:1004C2009BEC9AE899400AED9BFDEC9AFCE899F8BE
:0E04D2000FD5F0DAE4CDFBE4CCFAE4C8F92251
:00000001FF
