:10076900C200D2917F05120829C2917FC8120829B7
:100779007FC8120829D2917F32120829A2919200CA
:070789007F19120829A200EC
:010790002246
:10073B00E4F511F512751108D3E51194007480944A
:10074B00804018C291E51213F512D29130910343F8
:0D075B0012807F19120829151180DDAF12E0
:01076800226E
:02070B008F114C
:10070D00E4F512751208D3E51294007480948040BC
:10071D0018C291E5111392917F19120829D291E512
:0E072D0011C313F511151280DD7F1902082982
:10065D00E4F510FFFEFDFC1207697FCC12070B7F3E
:10066D004412070B7F0A1207AB1207697FCC1207E2
:10067D000B7FBE12070B12073B8F1012073BEF7F4C
:0B068D0000FEEF2510FDE43EFEAF056F
:01069800223F
:1004E00012069912065DAD07AC06E41202A6E4FB03
:1004F000FA7980783D1200FB8F0D8E0C8D0B8C0AE3
:100500007B2BE4FDFF120791E4FBFA79207841AFE1
:100510000DAE0CAD0BAC0A120204E4FBFA79407884
:100520004212000A1202DFAB07E4FD7F01120791BD
:10053000AF0DAE0CAD0BAC0A1202DF7C007D0A12CF
:100540000379ED2430FBE4FD7F021207917B2EE45A
:10055000FD7F03120791E4FFFE7D207C41AB0DAAD5
:100560000CA90BA80A1200FB1202DF7C007D0A1204
:100570000379ED2430FBE4FD7F04120791E4FFFED4
:100580007DC87C42AB0DAA0CA90BA80A1200FB1275
:1005900002DFE47B0AFAF9F8120619EB2430FBE4D7
:1005A000FD7F05120791E4FFFE7D7A7C44AB0DAA26
:1005B0000CA90BA80A1200FB1202DFE47B0AFAF96D
:1005C000F8120619EB2430FBE4FD7F061207917F39
:1005D000007E407D1C7C46AB0DAA0CA90BA80A121C
:1005E00000FB1202DFE47B0AFAF9F8120619EB2489
:1005F00030FBE4FD7F07120791E4F50EF50F7F64F1
:100600001207AB050FE50F7002050EC39464E50EEB
:090610006480948040E80204E3D8
:1007FB007580FFC2A4D2A5C2A600D2A6E580332283
:1007C0008F127F051207ABC2A4C2A5D2A6851280E4
:0407D00000C2A6229B
:1007D4008F127F051207ABD2A4C2A5D2A6851280C0
:0407E40000C2A62287
:0A0817007F011207C07F050207AB46
:1006D5008F138B148A158916ED7006E51324808017
:1006E50004E51324C0FF1207C0AB14AA15A91612FE
:1006F5000360FF60101207D474012516F516E43562
:0607050015F51580E42249
:100791008F108B11ED7006E51024808004E5102484
:0A07A100C0FF1207C0AF110207D419
:100699007F381207C07F051207AB7F381207C07F6A
:1006A900051207AB7F381207C07F051207AB7F38E9
:1006B9001207C07F081207C07F011207C07F061208
:0C06C90007C07F051207AB7F0C0207C0C2
:080821008F993099FDC2992264
:1007E800120360FF600C120821740129F9E43AFA37
:0307F80080EE226E
:03082900DFFE22CD
:1007AB00AE07AF061EEF600C7FF51208297FF5121E
:0507BB00082980EE2278
:1000030002034BE86480F8E933E83360110460F0DD
:10001300ED33EC337009E8FCE9FDEAFEEBFF220463
:1000230060DED3EB9FEA9EE99DE8C2E78CF0C2F75E
:1000330095F0400CE8CCF8E9CDF9EACEFAEBCFFB2A
:1000430012031685D0F05804700320D5B3E804706A
:10005300075002B2D502035592D5EC0460F7E4CC05
:10006300C0E0C398F8603B94186008400DD0E0FBF3
:1000730002032DE4FBFAC9FC8028E830E406E4C956
:10008300FBE4CAFCE830E305E4C9CACBFCE8540747
:100093006010F8C3E913F9EA13FAEB13FBEC13FC52
:1000A300D8F130F52FC3E49CFCEF9BFFEE9AFEEDF5
:1000B30099FDD0E0FBEF4E4D4C701222DB0302039F
:1000C30052EC2CFCEF33FFEE33FEED33FDED30E766
:1000D300EB02032DEF2BFFEE3AFEED39FDD0E0FBF3
:1000E30050130BBB0003020355ED13FDEE13FEEF9C
:0800F30013FFEC13FC02032DC6
:1000FB00EC4D6011E8497017ED33EC3304600DE4FF
:10010B00FCFFFEFD22E933E8330470F802034B12C7
:10011B00031658046009E4CC2481500628500902C8
:10012B000355284003020352C0E0EB4A7044B980E8
:10013B0006D0E0FB020341EF4E701CBD8008EBFFC5
:10014B00EAFEE9FD80EBE98DF0A4FEE5F00201E4A7
:10015B00E9CDF9EAFEEBFFEF89F0A4FCE5F0CE89DF
:10016B00F0A42EFFE435F0CD89F0A42DFEE435F09C
:10017B008067EF4E7005BD80D780C3EF8BF0A4ACCA
:10018B00F0EE8BF0A42CFCE435F0F8EF8AF0A42C05
:10019B00E5F038FCE433CB8DF0A42CFCE5F03BF818
:1001AB00EE8AF0A42CFCE5F038F8E433CF89F0A408
:1001BB002CFCE5F038CF3400CE89F0A42FFFE5F00E
:1001CB003EFEE433C98DF0A42EFEE5F039CD8AF066
:1001DB00A42FFFE5F03EFEE43DFD33D0E0FB5007DE
:1001EB000BBB000F020355EC2CFCEF33FFEE33FE81
:0601FB00ED33FD02032DAF
:10020100020355EC5D046005E85904700302034BD9
:10021100120316580460F6EC4860F2EC7004FDFE1F
:10022100FF22C860DB2481C85009C39860025006D0
:100231000203529850CAF582E9294B4A7005AB82F4
:1002410002034175F0007C1A7880C3EF9BEE9AEDB2
:1002510099400DC3EF9BFFEE9AFEED99FDE842F048
:10026100DC23ACF0D0E0FFD0E0FED0E0FDAB82209B
:10027100E7101BEB60BAEC2CFCEF33FFEE33FEED25
:1002810033FD02032DE803F830E705C0F075F000F7
:10029100EF2FFFEE33FEED33FD40B830E7C280AA09
:1002A10075F020800E75F010800575F0087D007ED8
:1002B100007F003392D530D5031203AFEC334010E9
:1002C100EF33FFEE33FEED33FDEC33FCD5F0ED22E1
:0E02D100E5F0247EA2D513CC92E7CDCEFF221D
:1002DF00EDD2E7CD33EC3392D524814006E4FFFE17
:1002EF00FDFC22FCE4CFCECDCC24E0501174FF8076
:1002FF00EDC3CC13CCCD13CDCE13CECF13CF047013
:07030F00F030D5DE0203AF60
:10031600E9D2E7C933E833F892D5EDD2E7CD33EC2D
:0703260033FC5002B2D522A6
:10032D00EC30E7100FBF000C0EBE00080DBD000431
:10033D000BEB6014A2D5EB13FCED92E7FD2274FFDD
:10034D00FCFDFEFF22E480F8A2D574FF13FC7D8036
:03035D00E480EF4A
:0300000002080BE8
:0C080B00787FE4F6D8FD7581200204E03F
:10036000BB010689828A83E0225002E722BBFE029B
:09037000E32289828A83E49322CE
:10037900C2D5EC30E709B2D5E4C39DFDE49CFCEE9F
:1003890030E715B2D5E4C39FFFE49EFE1203BDC357
:10039900E49DFDE49CFC80031203BD30D507C3E452
:0603A9009FFFE49EFE220E
:10061900C2D5E830E70FB2D5E4C39BFBE49AFAE40C
:1006290099F9E498F8EC30E717B2D512064F12049D
:100639004EE4C39BFBE49AFAE499F9E498F8800341
:1006490012044E30D50DE4C39FFFE49EFEE49DFDE8
:04065900E49CFC22FF
:0E03AF00C3E49FFFE49EFEE49DFDE49CFC225F
:1003BD00BC000BBE0029EF8DF084FFADF022E4CC24
:1003CD00F875F008EF2FFFEE33FEEC33FCEE9DECED
:1003DD00984005FCEE9DFE0FD5F0E9E4CEFD22ED33
:1003ED00F8F5F0EE8420D21CFEADF075F008EF2F7D
:1003FD00FFED33FD4007985006D5F0F222C398FD6E
:05040D000FD5F0EA220A
:1004120075F008758200EF2FFFEE33FECD33CDCCA1
:1004220033CCC58233C5829BED9AEC99E582984024
:100432000CF582EE9BFEED9AFDEC99FC0FD5F0D601
:10044200E4CEFBE4CDFAE4CCF9A88222B800C1B92B
:100452000059BA002DEC8BF084CFCECDFCE5F0CB69
:10046200F97818EF2FFFEE33FEED33FDEC33FCEBA2
:1004720033FB10D703994004EB99FB0FD8E5E4F95D
:10048200FA227818EF2FFFEE33FEED33FDEC33FC4A
:10049200C933C910D7059BE99A4007EC9BFCE99A3E
:1004A200F90FD8E0E4C9FAE4CCFB2275F010EF2F83
:1004B200FFEE33FEED33FDCC33CCC833C810D70783
:1004C2009BEC9AE899400AED9BFDEC9AFCE899F8BE
:0E04D2000FD5F0DAE4CDFBE4CCFAE4C8F92251
:00000001FF
