:03000000020006F5
:0C000600787FE4F6D8FD75811202004DF1
:0F00A3000A093F065B4F666D7D077F6F010800FE
:0900B300D288D2A8D2AFD2B22249
:1000920074092508F8E6F5A0E508640A7002F50877
:0100A200223B
:0800BC001200B312009280FB58
:030003000200C434
:0300C400050832FA
:100012000200BCE493A3F8E493A34003F68001F248
:1000220008DFF48029E493A3F85407240CC8C333EF
:10003200C4540F4420C8834004F456800146F6DFBE
:10004200E4800B01020408102040809000A3E47EAB
:10005200019360BCA3FF543F30E509541FFEE493B3
:10006200A360010ECF54C025E060A840B8E493A37A
:10007200FAE493A3F8E493A3C8C582C8CAC583CAA5
:10008200F0A3C8C582C8CAC583CADFE9DEE780BE5D
:0100B200004D
:00000001FF
