:0300000002000EED
:0C000E00787FE4F6D8FD758113020055E0
:1000B1000A0A3F06584F666D7D077F6F01080001F0
:0200C100090034
:1000C400740A2509F8E6F5A0E509640A7002F50941
:0100D4002209
:1000D500758901758C3C758AB0D2A9D2AFD28C22B4
:080003001200D51200C480FBBD
:03000B0002009A56
:10009A00C0E0758C3C758AB00508E50864147004E4
:0700AA000509F508D0E03262
:10001A00020003E493A3F8E493A34003F68001F2F9
:10002A0008DFF48029E493A3F85407240CC8C333E7
:10003A00C4540F4420C8834004F456800146F6DFB6
:10004A00E4800B01020408102040809000B1E47E95
:10005A00019360BCA3FF543F30E509541FFEE493AB
:10006A00A360010ECF54C025E060A840B8E493A372
:10007A00FAE493A3F8E493A3C8C582C8CAC583CA9D
:10008A00F0A3C8C582C8CAC583CADFE9DEE780BE55
:0100C300003C
:00000001FF
