:03000000020003F8
:0C000300787FE4F6D8FD75811302004AF6
:0F00EA000A093F06584F666D7D077F6F01086357
:1000CA00E4FDFCC3ED9FEC9E5015E4FAFB0BBB006C
:0F00DA00010AEB64784A70F50DBD00010C80E45B
:0100E90022F4
:10008F00E4FFF513F97590F0AE90EE64F060167F13
:10009F00147E001200CAAF9075900FAE90EE640FF1
:1000AF006003859013E5132FFF7E0064EE7002F559
:0A00BF0008EF64ED4E7003750801B0
:0100C9002214
:0900FA0074092508F8E6F5A022BE
:0801030012008F1200FA80F8CF
:10000F00020103E493A3F8E493A34003F68001F203
:10001F0008DFF48029E493A3F85407240CC8C333F2
:10002F00C4540F4420C8834004F456800146F6DFC1
:10003F00E4800B01020408102040809000EAE47E67
:10004F00019360BCA3FF543F30E509541FFEE493B6
:10005F00A360010ECF54C025E060A840B8E493A37D
:10006F00FAE493A3F8E493A3C8C582C8CAC583CAA8
:10007F00F0A3C8C582C8CAC583CADFE9DEE780BE60
:0100F9000006
:00000001FF
