:03000000020003F8
:0C000300787FE4F6D8FD75811102004AF8
:0C00CF000A083F06584F666D7D077F6FE2
:10008F00E4FDFCC3ED9FEC9E5015E4FAFB0BBB00A7
:0F009F00010AEB64784A70F50DBD00010C80E496
:0100AE00222F
:1000AF00E4F583F582AF8274082FF8E6F4F5A07FAC
:0F00BF00E87E0312008FA3E582640A458370E692
:0100CE00220F
:0500DC001200AF80FBE3
:10000F000200DCE493A3F8E493A34003F68001F22B
:10001F0008DFF48029E493A3F85407240CC8C333F2
:10002F00C4540F4420C8834004F456800146F6DFC1
:10003F00E4800B01020408102040809000CFE47E82
:10004F00019360BCA3FF543F30E509541FFEE493B6
:10005F00A360010ECF54C025E060A840B8E493A37D
:10006F00FAE493A3F8E493A3C8C582C8CAC583CAA8
:10007F00F0A3C8C582C8CAC583CADFE9DEE780BE60
:0100DB000024
:00000001FF
