:03000000020003F8
:0C000300787FE4F6D8FD75810D02004AFC
:1000D100323032313035313132330057616E672081
:0900E10059756E5869616E6700E3
:0A0161000308FF00D1030BFF00DCD0
:10012D007580FFC2A2D2A1D2A0AF80C2A0EF20E7FE
:01013D00F6CB
:01013E00229E
:10015100AE0712012DC2A2C2A18E80D2A0C2A022DE
:0601030014F91200EAFFEE
:10010900AE0712012DD2A2C2A18E80D2A0C2A02216
:100119007F011201517F061201517F0C1201517F9B
:040129003802015146
:10013F00ED7004AC078004EF2440FCEC4480FF0218
:02014F0001515C
:10008F00120119E4FDFF12013FAB08AA09A90A12D8
:10009F0000EA600D050AE50A7002050912010380E6
:1000AF00E87D01E4FF12013FAB0BAA0CA90D120072
:1000BF00EA600D050DE50D7002050C12010380E8D5
:0200CF0080FEB1
:10000F0002008FE493A3F8E493A34003F68001F278
:10001F0008DFF48029E493A3F85407240CC8C333F2
:10002F00C4540F4420C8834004F456800146F6DFC1
:10003F00E4800B0102040810204080900161E47EEF
:10004F00019360BCA3FF543F30E509541FFEE493B6
:10005F00A360010ECF54C025E060A840B8E493A37D
:10006F00FAE493A3F8E493A3C8C582C8CAC583CAA8
:10007F00F0A3C8C582C8CAC583CADFE9DEE780BE60
:01016B000093
:1000EA00BB010689828A83E0225002E722BBFE0214
:0900FA00E32289828A83E4932247
:00000001FF
